{
  "contractName": "StablePay",
  "abi": [
    {
      "constant": true,
      "inputs": [],
      "name": "assetProxy",
      "outputs": [
        {
          "name": "",
          "type": "address"
        }
      ],
      "payable": false,
      "stateMutability": "view",
      "type": "function"
    },
    {
      "constant": true,
      "inputs": [],
      "name": "wethErc20",
      "outputs": [
        {
          "name": "",
          "type": "address"
        }
      ],
      "payable": false,
      "stateMutability": "view",
      "type": "function"
    },
    {
      "constant": true,
      "inputs": [],
      "name": "exchange",
      "outputs": [
        {
          "name": "",
          "type": "address"
        }
      ],
      "payable": false,
      "stateMutability": "view",
      "type": "function"
    },
    {
      "inputs": [
        {
          "name": "_assetProxy",
          "type": "address"
        },
        {
          "name": "_exchange",
          "type": "address"
        },
        {
          "name": "_wethErc20",
          "type": "address"
        }
      ],
      "payable": false,
      "stateMutability": "nonpayable",
      "type": "constructor"
    },
    {
      "payable": true,
      "stateMutability": "payable",
      "type": "fallback"
    },
    {
      "constant": false,
      "inputs": [
        {
          "components": [
            {
              "name": "makerAddress",
              "type": "address"
            },
            {
              "name": "takerAddress",
              "type": "address"
            },
            {
              "name": "feeRecipientAddress",
              "type": "address"
            },
            {
              "name": "senderAddress",
              "type": "address"
            },
            {
              "name": "makerAssetAmount",
              "type": "uint256"
            },
            {
              "name": "takerAssetAmount",
              "type": "uint256"
            },
            {
              "name": "makerFee",
              "type": "uint256"
            },
            {
              "name": "takerFee",
              "type": "uint256"
            },
            {
              "name": "expirationTimeSeconds",
              "type": "uint256"
            },
            {
              "name": "salt",
              "type": "uint256"
            },
            {
              "name": "makerAssetData",
              "type": "bytes"
            },
            {
              "name": "takerAssetData",
              "type": "bytes"
            }
          ],
          "name": "_order",
          "type": "tuple"
        },
        {
          "name": "_fromErc20",
          "type": "address"
        },
        {
          "name": "_destErc20",
          "type": "address"
        },
        {
          "name": "_seller",
          "type": "address"
        },
        {
          "name": "_amount",
          "type": "uint256"
        },
        {
          "name": "_signature",
          "type": "bytes"
        }
      ],
      "name": "payToken",
      "outputs": [
        {
          "name": "",
          "type": "bool"
        }
      ],
      "payable": false,
      "stateMutability": "nonpayable",
      "type": "function"
    },
    {
      "constant": false,
      "inputs": [
        {
          "components": [
            {
              "name": "makerAddress",
              "type": "address"
            },
            {
              "name": "takerAddress",
              "type": "address"
            },
            {
              "name": "feeRecipientAddress",
              "type": "address"
            },
            {
              "name": "senderAddress",
              "type": "address"
            },
            {
              "name": "makerAssetAmount",
              "type": "uint256"
            },
            {
              "name": "takerAssetAmount",
              "type": "uint256"
            },
            {
              "name": "makerFee",
              "type": "uint256"
            },
            {
              "name": "takerFee",
              "type": "uint256"
            },
            {
              "name": "expirationTimeSeconds",
              "type": "uint256"
            },
            {
              "name": "salt",
              "type": "uint256"
            },
            {
              "name": "makerAssetData",
              "type": "bytes"
            },
            {
              "name": "takerAssetData",
              "type": "bytes"
            }
          ],
          "name": "_order",
          "type": "tuple"
        },
        {
          "name": "_destErc20",
          "type": "address"
        },
        {
          "name": "_seller",
          "type": "address"
        },
        {
          "name": "_paymentAmount",
          "type": "uint256"
        },
        {
          "name": "_signature",
          "type": "bytes"
        }
      ],
      "name": "payETH",
      "outputs": [
        {
          "name": "",
          "type": "bool"
        }
      ],
      "payable": true,
      "stateMutability": "payable",
      "type": "function"
    }
  ],
  "bytecode": "0x60806040523480156200001157600080fd5b506040516060806200154f833981018060405262000033919081019062000114565b826000806101000a81548173ffffffffffffffffffffffffffffffffffffffff021916908373ffffffffffffffffffffffffffffffffffffffff16021790555081600160006101000a81548173ffffffffffffffffffffffffffffffffffffffff021916908373ffffffffffffffffffffffffffffffffffffffff16021790555080600260006101000a81548173ffffffffffffffffffffffffffffffffffffffff021916908373ffffffffffffffffffffffffffffffffffffffff1602179055505050506200018a565b60006200010c82516200016a565b905092915050565b6000806000606084860312156200012a57600080fd5b60006200013a86828701620000fe565b93505060206200014d86828701620000fe565b92505060406200016086828701620000fe565b9150509250925092565b600073ffffffffffffffffffffffffffffffffffffffff82169050919050565b6113b5806200019a6000396000f30060806040526004361061006d576000357c0100000000000000000000000000000000000000000000000000000000900463ffffffff1680630b1350cf1461006f5780630d0b5b861461009a5780631ee44f32146100ca578063c53633bf14610107578063d2f7265a14610132575b005b34801561007b57600080fd5b5061008461015d565b60405161009191906110dd565b60405180910390f35b6100b460048036036100af9190810190610dfb565b610182565b6040516100c19190611181565b60405180910390f35b3480156100d657600080fd5b506100f160048036036100ec9190810190610d42565b61053b565b6040516100fe9190611181565b60405180910390f35b34801561011357600080fd5b5061011c6107b4565b60405161012991906110dd565b60405180910390f35b34801561013e57600080fd5b506101476107da565b60405161015491906110dd565b60405180910390f35b6000809054906101000a900473ffffffffffffffffffffffffffffffffffffffff1681565b60008061018d610a09565b600260009054906101000a900473ffffffffffffffffffffffffffffffffffffffff1691508173ffffffffffffffffffffffffffffffffffffffff1663d0e30db0346040518263ffffffff167c01000000000000000000000000000000000000000000000000000000000281526004016000604051808303818588803b15801561021657600080fd5b505af115801561022a573d6000803e3d6000fd5b5050505050848273ffffffffffffffffffffffffffffffffffffffff166370a08231306040518263ffffffff167c010000000000000000000000000000000000000000000000000000000002815260040161028591906110dd565b602060405180830381600087803b15801561029f57600080fd5b505af11580156102b3573d6000803e3d6000fd5b505050506040513d601f19601f820116820180604052506102d79190810190610ea2565b101515156102e457600080fd5b8173ffffffffffffffffffffffffffffffffffffffff1663095ea7b36000809054906101000a900473ffffffffffffffffffffffffffffffffffffffff16876040518363ffffffff167c010000000000000000000000000000000000000000000000000000000002815260040161035c929190611158565b602060405180830381600087803b15801561037657600080fd5b505af115801561038a573d6000803e3d6000fd5b505050506040513d601f19601f820116820180604052506103ae9190810190610cf0565b50600160009054906101000a900473ffffffffffffffffffffffffffffffffffffffff1673ffffffffffffffffffffffffffffffffffffffff1663b4be83d58987876040518463ffffffff167c010000000000000000000000000000000000000000000000000000000002815260040161042a939291906111dc565b608060405180830381600087803b15801561044457600080fd5b505af1158015610458573d6000803e3d6000fd5b505050506040513d601f19601f8201168201806040525061047c9190810190610d19565b90508673ffffffffffffffffffffffffffffffffffffffff1663a9059cbb8783600001516040518363ffffffff167c01000000000000000000000000000000000000000000000000000000000281526004016104d9929190611158565b602060405180830381600087803b1580156104f357600080fd5b505af1158015610507573d6000803e3d6000fd5b505050506040513d601f19601f8201168201806040525061052b9190810190610cf0565b5060019250505095945050505050565b6000610545610a09565b610550873386610800565b5061055c873386610905565b508673ffffffffffffffffffffffffffffffffffffffff1663095ea7b36000809054906101000a900473ffffffffffffffffffffffffffffffffffffffff16866040518363ffffffff167c01000000000000000000000000000000000000000000000000000000000281526004016105d5929190611158565b602060405180830381600087803b1580156105ef57600080fd5b505af1158015610603573d6000803e3d6000fd5b505050506040513d601f19601f820116820180604052506106279190810190610cf0565b50600160009054906101000a900473ffffffffffffffffffffffffffffffffffffffff1673ffffffffffffffffffffffffffffffffffffffff1663b4be83d58986866040518463ffffffff167c01000000000000000000000000000000000000000000000000000000000281526004016106a3939291906111dc565b608060405180830381600087803b1580156106bd57600080fd5b505af11580156106d1573d6000803e3d6000fd5b505050506040513d601f19601f820116820180604052506106f59190810190610d19565b90508573ffffffffffffffffffffffffffffffffffffffff1663a9059cbb8683600001516040518363ffffffff167c0100000000000000000000000000000000000000000000000000000000028152600401610752929190611158565b602060405180830381600087803b15801561076c57600080fd5b505af1158015610780573d6000803e3d6000fd5b505050506040513d601f19601f820116820180604052506107a49190810190610cf0565b5060019150509695505050505050565b600260009054906101000a900473ffffffffffffffffffffffffffffffffffffffff1681565b600160009054906101000a900473ffffffffffffffffffffffffffffffffffffffff1681565b60008060008591508173ffffffffffffffffffffffffffffffffffffffff1663dd62ed3e86306040518363ffffffff167c010000000000000000000000000000000000000000000000000000000002815260040161085f9291906110f8565b602060405180830381600087803b15801561087957600080fd5b505af115801561088d573d6000803e3d6000fd5b505050506040513d601f19601f820116820180604052506108b19190810190610ea2565b90508381101515156108f8576040517f08c379a00000000000000000000000000000000000000000000000000000000081526004016108ef906111bc565b60405180910390fd5b6001925050509392505050565b60008060008591508173ffffffffffffffffffffffffffffffffffffffff166323b872dd8630876040518463ffffffff167c010000000000000000000000000000000000000000000000000000000002815260040161096693929190611121565b602060405180830381600087803b15801561098057600080fd5b505af1158015610994573d6000803e3d6000fd5b505050506040513d601f19601f820116820180604052506109b89190810190610cf0565b90508015156109fc576040517f08c379a00000000000000000000000000000000000000000000000000000000081526004016109f39061119c565b60405180910390fd5b6001925050509392505050565b608060405190810160405280600081526020016000815260200160008152602001600081525090565b6000610a3e82356112f2565b905092915050565b6000610a528251611312565b905092915050565b600082601f8301121515610a6d57600080fd5b8135610a80610a7b8261124e565b611221565b91508082526020830160208301858383011115610a9c57600080fd5b610aa7838284611328565b50505092915050565b600082601f8301121515610ac357600080fd5b8135610ad6610ad18261127a565b611221565b91508082526020830160208301858383011115610af257600080fd5b610afd838284611328565b50505092915050565b600060808284031215610b1857600080fd5b610b226080611221565b90506000610b3284828501610cdc565b6000830152506020610b4684828501610cdc565b6020830152506040610b5a84828501610cdc565b6040830152506060610b6e84828501610cdc565b60608301525092915050565b60006101808284031215610b8d57600080fd5b610b98610180611221565b90506000610ba884828501610a32565b6000830152506020610bbc84828501610a32565b6020830152506040610bd084828501610a32565b6040830152506060610be484828501610a32565b6060830152506080610bf884828501610cc8565b60808301525060a0610c0c84828501610cc8565b60a08301525060c0610c2084828501610cc8565b60c08301525060e0610c3484828501610cc8565b60e083015250610100610c4984828501610cc8565b61010083015250610120610c5f84828501610cc8565b6101208301525061014082013567ffffffffffffffff811115610c8157600080fd5b610c8d84828501610a5a565b6101408301525061016082013567ffffffffffffffff811115610caf57600080fd5b610cbb84828501610a5a565b6101608301525092915050565b6000610cd4823561131e565b905092915050565b6000610ce8825161131e565b905092915050565b600060208284031215610d0257600080fd5b6000610d1084828501610a46565b91505092915050565b600060808284031215610d2b57600080fd5b6000610d3984828501610b06565b91505092915050565b60008060008060008060c08789031215610d5b57600080fd5b600087013567ffffffffffffffff811115610d7557600080fd5b610d8189828a01610b7a565b9650506020610d9289828a01610a32565b9550506040610da389828a01610a32565b9450506060610db489828a01610a32565b9350506080610dc589828a01610cc8565b92505060a087013567ffffffffffffffff811115610de257600080fd5b610dee89828a01610ab0565b9150509295509295509295565b600080600080600060a08688031215610e1357600080fd5b600086013567ffffffffffffffff811115610e2d57600080fd5b610e3988828901610b7a565b9550506020610e4a88828901610a32565b9450506040610e5b88828901610a32565b9350506060610e6c88828901610cc8565b925050608086013567ffffffffffffffff811115610e8957600080fd5b610e9588828901610ab0565b9150509295509295909350565b600060208284031215610eb457600080fd5b6000610ec284828501610cdc565b91505092915050565b610ed4816112bc565b82525050565b610ee3816112dc565b82525050565b6000610ef4826112b1565b808452610f08816020860160208601611337565b610f118161136a565b602085010191505092915050565b6000610f2a826112a6565b808452610f3e816020860160208601611337565b610f478161136a565b602085010191505092915050565b6000601b82527f5472616e736665722066726f6d204552433230206661696c65642e00000000006020830152604082019050919050565b6000601a82527f4e6f7420656e6f75676820616c6c6f77656420746f6b656e732e0000000000006020830152604082019050919050565b600061018083016000830151610fdc6000860182610ecb565b506020830151610fef6020860182610ecb565b5060408301516110026040860182610ecb565b5060608301516110156060860182610ecb565b50608083015161102860808601826110ce565b5060a083015161103b60a08601826110ce565b5060c083015161104e60c08601826110ce565b5060e083015161106160e08601826110ce565b506101008301516110766101008601826110ce565b5061012083015161108b6101208601826110ce565b506101408301518482036101408601526110a58282610f1f565b9150506101608301518482036101608601526110c18282610f1f565b9150508091505092915050565b6110d7816112e8565b82525050565b60006020820190506110f26000830184610ecb565b92915050565b600060408201905061110d6000830185610ecb565b61111a6020830184610ecb565b9392505050565b60006060820190506111366000830186610ecb565b6111436020830185610ecb565b61115060408301846110ce565b949350505050565b600060408201905061116d6000830185610ecb565b61117a60208301846110ce565b9392505050565b60006020820190506111966000830184610eda565b92915050565b600060208201905081810360008301526111b581610f55565b9050919050565b600060208201905081810360008301526111d581610f8c565b9050919050565b600060608201905081810360008301526111f68186610fc3565b905061120560208301856110ce565b81810360408301526112178184610ee9565b9050949350505050565b6000604051905081810181811067ffffffffffffffff8211171561124457600080fd5b8060405250919050565b600067ffffffffffffffff82111561126557600080fd5b601f19601f8301169050602081019050919050565b600067ffffffffffffffff82111561129157600080fd5b601f19601f8301169050602081019050919050565b600081519050919050565b600081519050919050565b600073ffffffffffffffffffffffffffffffffffffffff82169050919050565b60008115159050919050565b6000819050919050565b600073ffffffffffffffffffffffffffffffffffffffff82169050919050565b60008115159050919050565b6000819050919050565b82818337600083830152505050565b60005b8381101561135557808201518184015260208101905061133a565b83811115611364576000848401525b50505050565b6000601f19601f83011690509190505600a265627a7a723058203d121cba5a6d8535e0f00c95df3e4d38fde238f735cdc1dbb09098301881bdd76c6578706572696d656e74616cf50037",
  "source": "pragma solidity 0.4.24;\npragma experimental ABIEncoderV2;\n\n\nimport \"./erc20/ERC20.sol\";\nimport \"./0x/interfaces/IExchange.sol\";\nimport \"./0x/interfaces/IAssetProxy.sol\";\nimport \"./0x/libs/LibOrder.sol\";\nimport \"./0x/libs/LibFillResults.sol\";\nimport \"./erc20/WETH9.sol\";\n\n/**\n    @dev Stable Pay smart contract.\n */\ncontract StablePay {\n\n    address public assetProxy;\n    address public exchange;\n    address public wethErc20;\n\n    /**** Events ***********/\n\n    /*** Modifiers ***************/\n\n    /*** Constructor ***************/\n\n    constructor(address _assetProxy, address _exchange, address _wethErc20) public {\n        assetProxy = _assetProxy;\n        exchange = _exchange;\n        wethErc20 = _wethErc20;\n    }\n\n    /*** Fallback Method ***************/\n\n    function () public payable {}\n\n    /*** Methods ***************/\n\n    function checkAllowance(\n        address _erc20,\n        address _payer,\n        uint256 _amount\n    )\n    internal\n    view\n    returns (bool)\n    {\n        ERC20 token = ERC20(_erc20);\n        uint256 thisErc20Balance = token.allowance(_payer, address(this));\n        require(thisErc20Balance >= _amount, \"Not enough allowed tokens.\");\n        return true;\n    }\n\n    /**\n       @dev It transfers tokens from the seller to this contract.\n       @dev it  assumes allowance has been done.\n    */\n    function transferFromPayer(\n        address _erc20,\n        address _payer,\n        uint256 _amount\n    )\n\n    internal\n    returns (bool) {\n        ERC20 token = ERC20(_erc20);\n        bool transferResult = token.transferFrom(\n            _payer,\n            address(this),\n            _amount\n        );\n        require(transferResult, \"Transfer from ERC20 failed.\");\n        return true;\n    }\n\n    function payToken(\n        LibOrder.Order _order,\n        address _fromErc20,\n        address _destErc20,\n        address _seller,\n        uint256 _amount,\n        bytes _signature\n    )\n    public\n    returns (bool)\n    {\n        // Check if this contract has enough balance.\n        checkAllowance(_fromErc20, msg.sender, _amount);\n        \n        // Transfer the tokens from seller to this contract.\n        transferFromPayer(_fromErc20, msg.sender, _amount);\n        \n        // Allow Exchange to the transfer amount.\n        ERC20(_fromErc20).approve(assetProxy, _amount);\n\n        // Call fillOrder function in the IExchange instance.\n        LibFillResults.FillResults memory fillResults = IExchange(exchange).fillOrder(\n            _order,\n            _amount,\n            _signature\n        );\n\n        ERC20(_destErc20).transfer(_seller, fillResults.makerAssetFilledAmount);\n\n        return true;\n    }\n\n\n\n    function payETH(\n        LibOrder.Order _order,\n       // address _fromErc20,\n        address _destErc20,\n        address _seller,\n        uint256 _paymentAmount,\n        bytes _signature\n    )\n    public payable\n    returns (bool)\n    {\n\n        WETH9 weth = WETH9(wethErc20);\n        // deposit eth to weth\n        weth.deposit.value(msg.value)();\n\n        //now we have the weth continue with transaction\n\n        // Check if this contract has enough balance.\n        require(weth.balanceOf(address(this)) >= _paymentAmount);\n\n\n        // Allow Exchange to the transfer amount.\n        weth.approve(assetProxy, _paymentAmount);\n\n        // Call fillOrder function in the IExchange instance.\n        LibFillResults.FillResults memory fillResults = IExchange(exchange).fillOrder(\n            _order,\n                _paymentAmount,\n            _signature\n        );\n\n        ERC20(_destErc20).transfer(_seller, fillResults.makerAssetFilledAmount);\n\n        return true;\n    }\n}",
  "sourcePath": "/Users/dtutila/Solidity/stablepay_contracts/contracts/StablePay.sol",
  "compiler": {
    "name": "solc",
    "version": "0.4.24+commit.e67f0147.Emscripten.clang"
  },
  "schemaVersion": "2.0.1",
  "updatedAt": "2018-10-06T21:23:47.335Z"
}